:03000000020EDB12
:0C0EDB00787FE4F6D8FD75810E020B1440
:0C0EE700758920758DFAD28E7598502206
:100EA7007F2E120ED3120ED3120ED3120ED3120EA2
:100EB700D3120ED3120ED3120ED3120ED3120ED399
:0C0EC700120ED3120ED3120ED3120ED353
:080ED3008F993099FDC29922AC
:080EFC003098FDC298AF992265
:020E4A008F0C0B
:100E4C007B017A00AF0C7E00AD03AC02120A7BC3AF
:100E5C00EF940AEE6480948040117C007D0AAF030D
:100E6C00AE02120A69AA06AB0780D9EB4A602BAF17
:100E7C000C7E00AD03AC02120A7BEF2430FF120E85
:100E8C00D3AF03E50C8FF08485F00C7C007D0AAEAB
:0A0E9C0002120A7BAA06AB0780D100
:010EA6002229
:100C7500AE07A905120EA77F0A120ED38E0BAF067B
:100C8500120E4A7F20120ED3890BAF01120E4A7F36
:100C95000A120ED37F41120ED37F3A120ED37F2054
:100CA500120ED37F41120ED37F44120ED3120ED3F0
:100CB5007F49120ED37F54120ED37F49120ED37F74
:100CC50030120ED37F4E120ED37F0A120ED37F42FF
:100CD500120ED37F3A120ED37F20120ED37F5312FA
:100CE5000ED37F55120ED37F42120ED37F54120EB0
:100CF500D37F52120ED37F41120ED37F43120ED3F0
:100D05007F54120ED37F49120ED37F4F120ED31F7D
:100D1500120ED37F0A120ED37F43120ED37F3A12DF
:100D25000ED37F20120ED37F44120ED37F49120EAD
:100D3500D37F56120ED37F49120ED37F53120ED393
:100D45007F49120ED37F4F120ED31F120ED37F0A87
:100D5500120ED37F44120ED37F3A120ED37F531255
:100D65000ED37F51120ED30F120ED37F54120ED312
:100D75007F0A120ED37F45120ED37F3A120ED37F10
:100D85004D120ED37F55120ED37F4C120ED37F0A10
:0B0D9500120ED3120EA77F0A020ED32D
:090EF300120EFCEF24D0020A5794
:100B1400120EE77F45120ED37F4E120ED37F54126E
:100B24000ED37F45120ED37F52120ED37F20120EA6
:100B3400D37F54120ED37F57120ED37F30120ED3AD
:100B44007F20120ED37F33120ED37F42120ED37F37
:100B540049120ED37F54120ED37F20120ED37F4E30
:100B6400120ED37F55120ED37F4D120ED37F421235
:100B74000ED37F45120ED37F52120ED30F120ED313
:100B84007F5B120ED37F30120ED37F2D120ED37FD4
:100B940039120ED37F20120ED37F57120ED37F4902
:100BA400120ED37F54120ED37F48120ED37F4F12EE
:100BB4000ED37F55120ED31F120ED37F20120ED3E5
:100BC4007F53120ED37F50120ED37F41120ED37F68
:100BD40043120ED37F45120ED37F0A120ED3120E88
:100BE400D37B007A007908120EF37F0A120ED37AAF
:050BF4000009120EF3E0
:100BF900AD09AF08120C75120EFC8F0AE50AB44153
:100C090008E5092508F50880E7E50AB44219E50869
:100C1900C395095009C3E5099508F50880D2C3E5CC
:100C2900089509F50880C9E50AB4431BE509D39578
:100C390008400AE5098508F084F50980B3E50885C7
:100C490009F084F50880A9E50AB44410AC09E41256
:100C5900080A120DA412083E8F098094E50A64451A
:0A0C6900708EE5098508F0A4F50976
:020C730080847B
:1008000075F020800E75F010800575F0087D007E73
:10081000007F003392D530D503120AB1EC3340107B
:10082000EF33FFEE33FEED33FDEC33FCD5F0ED227C
:0E083000E5F0247EA2D513CC92E7CDCEFF22B8
:10083E00EDD2E7CD33EC3392D524814006E4FFFEB2
:10084E00FDFC22FCE4CFCECDCC24E0501174FF8011
:10085E00EDC3CC13CCCD13CDCE13CECF13CF0470AE
:07086E00F030D5DE020AB1F3
:100DA0000208AA22EDA2E7D2E7F9EC3340F260F3A1
:100DB000B4FF08ED547F70E80208B4F82481C2E063
:100DC000C0E0F40428FAC313FCED92E7FD8C0B8D10
:100DD0000C8E0D8F0EEEA2E7E9BA7F02C31334002A
:100DE0009400FA75F091A4E5F013F494FE8AF0A44F
:100DF00033E5F033248CD313FDE492E7FE7F007CCF
:100E00003F758302ECC0E0F8EDC0E0F9EEC0E0FA17
:100E1000EFC0E0FBAC0BAD0CAE0DAF0E1209BAD0BB
:100E2000E0FBD0E0FAD0E0F9D0E0F81208C6ED64BB
:100E300080FD30E7011CD583CBED33CC33F8D0E017
:0A0E4000A2E71328C313CC13FD2210
:10087500E9D2E7C933E833F892D5EDD2E7CD33ECC9
:0708850033FC5002B2D52242
:10088C00EC30E7100FBF000C0EBE00080DBD0004CD
:10089C000BEB6014A2D5EB13FCED92E7FD2274FF79
:1008AC00FCFDFEFF22E480F8A2D574FF13FC7D80D2
:0308BC00E480EFE6
:1008BF000208AAE86480F8E933E83360110460F0B5
:1008CF00ED33EC337009E8FCE9FDEAFEEBFF22049F
:1008DF0060DED3EB9FEA9EE99DE8C2E78CF0C2F79A
:1008EF0095F0400CE8CCF8E9CDF9EACEFAEBCFFB66
:1008FF0012087585D0F05804700320D5B3E8047042
:10090F00075002B2D50208B492D5EC0460F7E4CCDC
:10091F00C0E0C398F8603B94186008400DD0E0FB2E
:10092F0002088CE4FBFAC9FC8028E830E406E4C92D
:10093F00FBE4CAFCE830E305E4C9CACBFCE8540782
:10094F006010F8C3E913F9EA13FAEB13FBEC13FC8D
:10095F00D8F130F52FC3E49CFCEF9BFFEE9AFEED30
:10096F0099FDD0E0FBEF4E4D4C701222DB030208D5
:10097F00B1EC2CFCEF33FFEE33FEED33FDED30E742
:10098F00EB02088CEF2BFFEE3AFEED39FDD0E0FBCA
:10099F0050130BBB00030208B4ED13FDEE13FEEF73
:0809AF0013FFEC13FC02088C9D
:1009B7000208B4EC5D046005E8590470030208AA54
:1009C700120875580460F6EC4860F2EC7004FDFEFE
:1009D700FF22C860DB2481C85009C3986002500613
:1009E7000208B19850CAF582E9294B4A7005AB82D3
:1009F7000208A075F0007C1A7880C3EF9BEE9AED91
:100A070099400DC3EF9BFFEE9AFEED99FDE842F08A
:100A1700DC23ACF0D0E0FFD0E0FED0E0FDAB8220DD
:100A2700E7101BEB60BAEC2CFCEF33FFEE33FEED67
:100A370033FD02088CE803F830E705C0F075F000D5
:100A4700EF2FFFEE33FEED33FD40B830E7C280AA4B
:100A5700BB010689828A83F0225002F722BBFE017E
:020A6700F32278
:100A6900EF8DF0A4A8F0CF8CF0A428CE8DF0A42EA1
:020A7900FE225B
:100A7B00C2D5EC30E709B2D5E4C39DFDE49CFCEE96
:100A8B0030E715B2D5E4C39FFFE49EFE120ABFC345
:100A9B00E49DFDE49CFC8003120ABF30D507C3E440
:060AAB009FFFE49EFE2205
:0E0AB100C3E49FFFE49EFEE49DFDE49CFC2256
:100ABF00BC000BBE0029EF8DF084FFADF022E4CC1B
:100ACF00F875F008EF2FFFEE33FEEC33FCEE9DECE4
:100ADF00984005FCEE9DFE0FD5F0E9E4CEFD22ED2A
:100AEF00F8F5F0EE8420D21CFEADF075F008EF2F74
:100AFF00FFED33FD4007985006D5F0F222C398FD65
:050B0F000FD5F0EA2201
:00000001FF
